:020000020000FC
:0200000033C00B
:020054004AC0A0
:02004000189511
:02004400A1C059
:10006800F29A00E1E02EB02E01E0F02EC02E60E002
:1000780050E0009164000E7F009364000FEF0DBF05
:1000880008E00EBF07B1006007B904B10A6604B9F9
:1000980005B1066105B900E000937C0004E4009313
:1000A8007B000BEA00937A0000ED0CBD00E00DBD6B
:1000B80002E607BD03E004BD01E000936E000DE019
:1000C80005BD0DB500680DBD7894F09BFECFF29B81
:1000D800FCCFF89437D029981E9A3EBDF2987894B0
:1000E800F4CF3F931F932F93CF93DF933FEF0CD021
:1000F8003091780009D03091790006D0DF91CF9106
:100108002F911F913F911895F1991BC00F93CF9391
:10011800DF93CB2DDC2D399353955F71552309F06F
:1001280005C000E1B02E01E0C02E02C0BC2ECD2ECD
:10013800F09ABE14CF0409F001C0F19ADF91CF9173
:100148000F910895F09B1BC00F93CF93DF93CE2D93
:10015800DF2D399163956F71662309F005C000E1C1
:10016800E02E01E0F02E02C0EC2EFD2EF198EB14EB
:10017800FC0409F001C0F098DF91CF910F91089528
:06018800299AF29A189575
:00000001FF
